:0B08B600EF1FAC0670011E4C70F62214
:060867007D0B7FC27E0143
:04086D00AB07AA0625
:100871007C007E047FB0120812AC02AD03120800A6
:0A088100EF1FAC0670011E4C70F66C
:01088B00224A
:10088C00C2A07F507EC31208B6D2A07F507EC31286
:0E089C0008B6C2A0120867D2A012086780E258
:030000000208AA49
:0C08AA00787FE4F6D8FD75810702088C09
:10080000EF8DF0A4A8F0CF8CF0A428CE8DF0A42E0C
:02081000FE22C6
:10081200BC000BBE0029EF8DF084FFADF022E4CCCA
:10082200F875F008EF2FFFEE33FEEC33FCEE9DEC93
:10083200984005FCEE9DFE0FD5F0E9E4CEFD22EDD9
:10084200F8F5F0EE8420D21CFEADF075F008EF2F23
:10085200FFED33FD4007985006D5F0F222C398FD14
:050862000FD5F0EA22B1
:00000001FF
