:100C55003F065B4F666D7D077F6F777C395E7971E7
:060C740004110000000065
:100C410075A885D288D28AAF14AE13AD12AC111239
:040C5100096D80F3B6
:03000300020B509D
:100B5000C0E0C0F0C083C082C0D075D000C000C06B
:100B600001C002C003C004C005C006C007120C6566
:100B700020B219E4FAF9F8E5142401F514EA351362
:100B8000F513E93512F512E83511F511D007D00645
:100B9000D005D004D003D002D001D000D0D0D08274
:070BA000D083D0F0D0E03259
:03001300020BA736
:100BA700C0E0C0F0C083C082C0D075D000C000C014
:100BB70001C002C003C004C005C006C007120C650F
:100BC70020B31874FF2514F514E51334FFF513E566
:100BD7001234FFF512E51134FFF511D007D006D016
:100BE70005D004D003D002D001D000D0D0D082D01D
:060BF70083D0F0D0E032D3
:040C65007F647E002A
:0B0C6900EF1FAC0670011E4C70F6225D
:08096D008F0B8E0A8D098C0826
:10097500E4750F0AF50EF50DF50C7510017FFF7E78
:10098500E07DF57C05AB0BAA0AA909A808D31208D6
:100995004F4007B295120C6580F9AB0FAA0EA90D51
:1009A500A80CAF0BAE0AAD09AC08120BFDEC4D4E11
:1009B5004F601DAF0FAE0EAD0DAC0CE47B0AFAF91E
:1009C500F81208008F0F8E0E8D0D8C0C051080CA45
:1009D500E4750F08F50EF50DF50CC374089510FFB9
:1009E500E49400FEE4FCFDAB0FAA0EA90DA80CD300
:1009F50012084F5003020AC3AC0CAD0DAE0EAF0F7B
:100A05001208650A3C000000010A40000000020AC5
:100A150048000000030A4C000000040A54000000CE
:100A2500050A58000000060A60000000070A640075
:100A350000000800000A6AD2A28002C2A2D2A3D294
:100A4500A48022D2A28002C2A2C2A3D2A48016D2BE
:100A5500A28002C2A2D2A3C2A4800AD2A28002C2EC
:100A6500A2C2A3C2A4E47B0AFAF9F8AF0BAE0AADA1
:100A750009AC08120BFD74552BF582740C3AF583FD
:100A8500E493F580AF0BAE0AAD09AC08E47B0AFA36
:100A9500F9F8120BFD8F0B8E0A8D098C08120C6567
:100AA500E4F58074FF250FF50FE50E34FFF50EE52F
:0E0AB5000D34FFF50DE50C34FFF50C0209DFE2
:010AC3002210
:03000000020AC42D
:0C0AC400787FE4F6D8FD758114020B0B5E
:10080000E88FF0A4CC8BF0A42CFCE98EF0A42CFC97
:100810008AF0EDA42CFCEA8EF0A4CDA8F08BF0A415
:100820002DCC3825F0FDE98FF0A42CCD35F0FCEB74
:100830008EF0A4FEA9F0EB8FF0A4CFC5F02ECD3939
:0F084000FEE43CFCEAA42DCE35F0FDE43CFC22A6
:100BFD00C2D5E830E70FB2D5E4C39BFBE49AFAE423
:100C0D0099F9E498F8EC30E717B2D5120C331208C5
:100C1D00DBE4C39BFBE49AFAE499F9E498F88003CA
:100C2D001208DB30D50DE4C39FFFE49EFEE49DFD6D
:040C3D00E49CFC2215
:10084F00EB9FF5F0EA9E42F0E99D42F0EC6480C820
:06085F0064809845F022C0
:10086500D083D082E4937012740193700DA3A39387
:10087500F8740193F5828883E4737402936C7012A3
:100885007403936D700C7404936E70067405936F06
:0A08950060DDA3A3A3A3A3A380CA00
:100AD000020C41E493A3F8E493A34003F68001F2EF
:100AE00008DFF48029E493A3F85407240CC8C33327
:100AF000C4540F4420C8834004F456800146F6DFF6
:100B0000E4800B0102040810204080900C74E47E05
:100B1000019360BCA3FF543F30E509541FFEE493EA
:100B2000A360010ECF54C025E060A840B8E493A3B1
:100B3000FAE493A3F8E493A3C8C582C8CAC583CADC
:100B4000F0A3C8C582C8CAC583CADFE9DEE780BE94
:010C7A000079
:10089F0075F008758200EF2FFFEE33FECD33CDCC10
:1008AF0033CCC58233C5829BED9AEC99E582984093
:1008BF000CF582EE9BFEED9AFDEC99FC0FD5F0D670
:1008CF00E4CEFBE4CDFAE4CCF9A88222B800C1B99A
:1008DF000059BA002DEC8BF084CFCECDFCE5F0CBD8
:1008EF00F97818EF2FFFEE33FEED33FDEC33FCEB11
:1008FF0033FB10D703994004EB99FB0FD8E5E4F9CC
:10090F00FA227818EF2FFFEE33FEED33FDEC33FCB8
:10091F00C933C910D7059BE99A4007EC9BFCE99AAC
:10092F00F90FD8E0E4C9FAE4CCFB2275F010EF2FF1
:10093F00FFEE33FEED33FDCC33CCC833C810D707F1
:10094F009BEC9AE899400AED9BFDEC9AFCE899F82C
:0E095F000FD5F0DAE4CDFBE4CCFAE4C8F922BF
:00000001FF
